{
  "_format": "hh-sol-artifact-1",
  "contractName": "testContract",
  "sourceName": "contracts/testContract.sol",
  "abi": [
    {
      "inputs": [],
      "stateMutability": "nonpayable",
      "type": "constructor"
    },
    {
      "anonymous": false,
      "inputs": [
        {
          "indexed": false,
          "internalType": "address",
          "name": "",
          "type": "address"
        },
        {
          "indexed": false,
          "internalType": "uint256",
          "name": "",
          "type": "uint256"
        }
      ],
      "name": "Received",
      "type": "event"
    },
    {
      "inputs": [],
      "name": "owner",
      "outputs": [
        {
          "internalType": "address",
          "name": "",
          "type": "address"
        }
      ],
      "stateMutability": "view",
      "type": "function"
    },
    {
      "inputs": [
        {
          "internalType": "uint256",
          "name": "amount",
          "type": "uint256"
        },
        {
          "internalType": "address payable",
          "name": "recipient",
          "type": "address"
        }
      ],
      "name": "withdrawEther",
      "outputs": [],
      "stateMutability": "payable",
      "type": "function"
    },
    {
      "stateMutability": "payable",
      "type": "receive"
    }
  ],
  "bytecode": "0x608060405234801561001057600080fd5b50336000806101000a81548173ffffffffffffffffffffffffffffffffffffffff021916908373ffffffffffffffffffffffffffffffffffffffff160217905550600060018190555061038e806100686000396000f3fe60806040526004361061002d5760003560e01c80638da5cb5b1461008b578063ce56c454146100b657610086565b3661008657346001600082825461004491906101e1565b925050819055507f88a5966d370b9919b20f3e2c13ff65706f196a4e32cc2c12bf57088f88525874333460405161007c929190610265565b60405180910390a1005b600080fd5b34801561009757600080fd5b506100a06100d2565b6040516100ad919061028e565b60405180910390f35b6100d060048036038101906100cb9190610318565b6100f6565b005b60008054906101000a900473ffffffffffffffffffffffffffffffffffffffff1681565b60008054906101000a900473ffffffffffffffffffffffffffffffffffffffff1673ffffffffffffffffffffffffffffffffffffffff163373ffffffffffffffffffffffffffffffffffffffff161461014e57600080fd5b60015482111561015d57600080fd5b8073ffffffffffffffffffffffffffffffffffffffff166108fc839081150290604051600060405180830381858888f193505050501580156101a3573d6000803e3d6000fd5b505050565b6000819050919050565b7f4e487b7100000000000000000000000000000000000000000000000000000000600052601160045260246000fd5b60006101ec826101a8565b91506101f7836101a8565b925082820190508082111561020f5761020e6101b2565b5b92915050565b600073ffffffffffffffffffffffffffffffffffffffff82169050919050565b600061024082610215565b9050919050565b61025081610235565b82525050565b61025f816101a8565b82525050565b600060408201905061027a6000830185610247565b6102876020830184610256565b9392505050565b60006020820190506102a36000830184610247565b92915050565b600080fd5b6102b7816101a8565b81146102c257600080fd5b50565b6000813590506102d4816102ae565b92915050565b60006102e582610215565b9050919050565b6102f5816102da565b811461030057600080fd5b50565b600081359050610312816102ec565b92915050565b6000806040838503121561032f5761032e6102a9565b5b600061033d858286016102c5565b925050602061034e85828601610303565b915050925092905056fea2646970667358221220baf0b6f25786abf6bf72d5cd81872c844a0a10d1d724de66aa6d118b834f0ba364736f6c63430008110033",
  "linkReferences": {},
  "deployedLinkReferences": {}
}